{
  "abi": [
    {
      "anonymous": false,
      "inputs": [
        {
          "indexed": false,
          "internalType": "contract ISimpleToken",
          "name": "lpToken",
          "type": "address"
        },
        {
          "indexed": false,
          "internalType": "address",
          "name": "sirenPriceOracle",
          "type": "address"
        },
        {
          "indexed": false,
          "internalType": "address",
          "name": "controller",
          "type": "address"
        }
      ],
      "name": "AMMInitialized",
      "type": "event"
    },
    {
      "anonymous": false,
      "inputs": [
        {
          "indexed": false,
          "internalType": "address",
          "name": "addressesProvider",
          "type": "address"
        }
      ],
      "name": "AddressesProviderUpdated",
      "type": "event"
    },
    {
      "anonymous": false,
      "inputs": [
        {
          "indexed": false,
          "internalType": "address",
          "name": "buyer",
          "type": "address"
        },
        {
          "indexed": false,
          "internalType": "uint64",
          "name": "seriesId",
          "type": "uint64"
        },
        {
          "indexed": false,
          "internalType": "uint256",
          "name": "bTokensBought",
          "type": "uint256"
        },
        {
          "indexed": false,
          "internalType": "uint256",
          "name": "collateralPaid",
          "type": "uint256"
        }
      ],
      "name": "BTokensBought",
      "type": "event"
    },
    {
      "anonymous": false,
      "inputs": [
        {
          "indexed": false,
          "internalType": "address",
          "name": "seller",
          "type": "address"
        },
        {
          "indexed": false,
          "internalType": "uint64",
          "name": "seriesId",
          "type": "uint64"
        },
        {
          "indexed": false,
          "internalType": "uint256",
          "name": "bTokensSold",
          "type": "uint256"
        },
        {
          "indexed": false,
          "internalType": "uint256",
          "name": "collateralPaid",
          "type": "uint256"
        }
      ],
      "name": "BTokensSold",
      "type": "event"
    },
    {
      "anonymous": false,
      "inputs": [
        {
          "indexed": false,
          "internalType": "address",
          "name": "newAddress",
          "type": "address"
        }
      ],
      "name": "CodeAddressUpdated",
      "type": "event"
    },
    {
      "anonymous": false,
      "inputs": [
        {
          "indexed": false,
          "internalType": "int256",
          "name": "ivShift",
          "type": "int256"
        },
        {
          "indexed": false,
          "internalType": "bool",
          "name": "dynamicIvEnabled",
          "type": "bool"
        },
        {
          "indexed": false,
          "internalType": "uint16",
          "name": "ivDriftRate",
          "type": "uint16"
        }
      ],
      "name": "ConfigUpdated",
      "type": "event"
    },
    {
      "anonymous": false,
      "inputs": [
        {
          "indexed": false,
          "internalType": "address",
          "name": "redeemer",
          "type": "address"
        },
        {
          "indexed": false,
          "internalType": "uint256",
          "name": "collateralRemoved",
          "type": "uint256"
        },
        {
          "indexed": false,
          "internalType": "uint256",
          "name": "lpTokensBurned",
          "type": "uint256"
        }
      ],
      "name": "LpTokensBurned",
      "type": "event"
    },
    {
      "anonymous": false,
      "inputs": [
        {
          "indexed": false,
          "internalType": "address",
          "name": "minter",
          "type": "address"
        },
        {
          "indexed": false,
          "internalType": "uint256",
          "name": "collateralAdded",
          "type": "uint256"
        },
        {
          "indexed": false,
          "internalType": "uint256",
          "name": "lpTokensMinted",
          "type": "uint256"
        }
      ],
      "name": "LpTokensMinted",
      "type": "event"
    },
    {
      "anonymous": false,
      "inputs": [
        {
          "indexed": true,
          "internalType": "address",
          "name": "previousOwner",
          "type": "address"
        },
        {
          "indexed": true,
          "internalType": "address",
          "name": "newOwner",
          "type": "address"
        }
      ],
      "name": "OwnershipTransferred",
      "type": "event"
    },
    {
      "anonymous": false,
      "inputs": [
        {
          "indexed": false,
          "internalType": "uint64",
          "name": "seriesId",
          "type": "uint64"
        }
      ],
      "name": "SeriesEvicted",
      "type": "event"
    },
    {
      "anonymous": false,
      "inputs": [
        {
          "indexed": true,
          "internalType": "address",
          "name": "feePaidTo",
          "type": "address"
        },
        {
          "indexed": false,
          "internalType": "uint256",
          "name": "feeAmount",
          "type": "uint256"
        }
      ],
      "name": "TradeFeesPaid",
      "type": "event"
    },
    {
      "anonymous": false,
      "inputs": [
        {
          "indexed": false,
          "internalType": "uint16",
          "name": "newTradeFeeBasisPoints",
          "type": "uint16"
        },
        {
          "indexed": false,
          "internalType": "uint16",
          "name": "newMaxOptionFeeBasisPoints",
          "type": "uint16"
        },
        {
          "indexed": false,
          "internalType": "address",
          "name": "newFeeDestinationAddress",
          "type": "address"
        }
      ],
      "name": "TradeFeesUpdated",
      "type": "event"
    },
    {
      "anonymous": false,
      "inputs": [
        {
          "indexed": false,
          "internalType": "address",
          "name": "seller",
          "type": "address"
        },
        {
          "indexed": false,
          "internalType": "uint64",
          "name": "seriesId",
          "type": "uint64"
        },
        {
          "indexed": false,
          "internalType": "uint256",
          "name": "wTokensSold",
          "type": "uint256"
        },
        {
          "indexed": false,
          "internalType": "uint256",
          "name": "collateralPaid",
          "type": "uint256"
        }
      ],
      "name": "WTokensSold",
      "type": "event"
    },
    {
      "inputs": [],
      "name": "MINIMUM_TRADE_SIZE",
      "outputs": [
        {
          "internalType": "uint256",
          "name": "",
          "type": "uint256"
        }
      ],
      "stateMutability": "view",
      "type": "function"
    },
    {
      "inputs": [
        {
          "internalType": "uint64",
          "name": "_seriesId",
          "type": "uint64"
        }
      ],
      "name": "addSeries",
      "outputs": [],
      "stateMutability": "nonpayable",
      "type": "function"
    },
    {
      "inputs": [],
      "name": "ammDataProvider",
      "outputs": [
        {
          "internalType": "address",
          "name": "",
          "type": "address"
        }
      ],
      "stateMutability": "view",
      "type": "function"
    },
    {
      "inputs": [
        {
          "internalType": "uint64",
          "name": "seriesId",
          "type": "uint64"
        },
        {
          "internalType": "uint256",
          "name": "bTokenAmount",
          "type": "uint256"
        },
        {
          "internalType": "uint256",
          "name": "collateralMaximum",
          "type": "uint256"
        }
      ],
      "name": "bTokenBuy",
      "outputs": [
        {
          "internalType": "uint256",
          "name": "",
          "type": "uint256"
        }
      ],
      "stateMutability": "nonpayable",
      "type": "function"
    },
    {
      "inputs": [
        {
          "internalType": "uint64",
          "name": "seriesId",
          "type": "uint64"
        },
        {
          "internalType": "uint256",
          "name": "nonce",
          "type": "uint256"
        },
        {
          "internalType": "uint256",
          "name": "expiry",
          "type": "uint256"
        },
        {
          "internalType": "address",
          "name": "signerWallet",
          "type": "address"
        },
        {
          "internalType": "uint256",
          "name": "signerAmount",
          "type": "uint256"
        },
        {
          "internalType": "uint256",
          "name": "senderAmount",
          "type": "uint256"
        },
        {
          "internalType": "uint8",
          "name": "v",
          "type": "uint8"
        },
        {
          "internalType": "bytes32",
          "name": "r",
          "type": "bytes32"
        },
        {
          "internalType": "bytes32",
          "name": "s",
          "type": "bytes32"
        }
      ],
      "name": "bTokenDirectBuy",
      "outputs": [],
      "stateMutability": "nonpayable",
      "type": "function"
    },
    {
      "inputs": [
        {
          "internalType": "uint64",
          "name": "seriesId",
          "type": "uint64"
        },
        {
          "internalType": "uint256",
          "name": "bTokenAmount",
          "type": "uint256"
        },
        {
          "internalType": "uint256",
          "name": "collateralMinimum",
          "type": "uint256"
        }
      ],
      "name": "bTokenSell",
      "outputs": [
        {
          "internalType": "uint256",
          "name": "",
          "type": "uint256"
        }
      ],
      "stateMutability": "nonpayable",
      "type": "function"
    },
    {
      "inputs": [
        {
          "internalType": "uint256",
          "name": "bTokenAmount",
          "type": "uint256"
        },
        {
          "internalType": "uint256",
          "name": "collateralAmount",
          "type": "uint256"
        }
      ],
      "name": "calculateFees",
      "outputs": [
        {
          "internalType": "uint256",
          "name": "",
          "type": "uint256"
        }
      ],
      "stateMutability": "view",
      "type": "function"
    },
    {
      "inputs": [],
      "name": "claimAllExpiredTokens",
      "outputs": [],
      "stateMutability": "nonpayable",
      "type": "function"
    },
    {
      "inputs": [
        {
          "internalType": "uint64",
          "name": "seriesId",
          "type": "uint64"
        }
      ],
      "name": "claimExpiredTokens",
      "outputs": [],
      "stateMutability": "nonpayable",
      "type": "function"
    },
    {
      "inputs": [],
      "name": "collateralBalance",
      "outputs": [
        {
          "internalType": "uint256",
          "name": "",
          "type": "uint256"
        }
      ],
      "stateMutability": "view",
      "type": "function"
    },
    {
      "inputs": [],
      "name": "collateralToken",
      "outputs": [
        {
          "internalType": "contract IERC20",
          "name": "",
          "type": "address"
        }
      ],
      "stateMutability": "view",
      "type": "function"
    },
    {
      "inputs": [],
      "name": "dynamicIvEnabled",
      "outputs": [
        {
          "internalType": "bool",
          "name": "",
          "type": "bool"
        }
      ],
      "stateMutability": "view",
      "type": "function"
    },
    {
      "inputs": [],
      "name": "erc1155Controller",
      "outputs": [
        {
          "internalType": "contract IERC1155",
          "name": "",
          "type": "address"
        }
      ],
      "stateMutability": "view",
      "type": "function"
    },
    {
      "inputs": [],
      "name": "feeDestinationAddress",
      "outputs": [
        {
          "internalType": "address",
          "name": "",
          "type": "address"
        }
      ],
      "stateMutability": "view",
      "type": "function"
    },
    {
      "inputs": [],
      "name": "getAllSeries",
      "outputs": [
        {
          "internalType": "uint64[]",
          "name": "",
          "type": "uint64[]"
        }
      ],
      "stateMutability": "view",
      "type": "function"
    },
    {
      "inputs": [],
      "name": "getAmmDataProvider",
      "outputs": [
        {
          "internalType": "contract IAmmDataProvider",
          "name": "",
          "type": "address"
        }
      ],
      "stateMutability": "view",
      "type": "function"
    },
    {
      "inputs": [],
      "name": "getBaselineVolatility",
      "outputs": [
        {
          "internalType": "uint256",
          "name": "",
          "type": "uint256"
        }
      ],
      "stateMutability": "view",
      "type": "function"
    },
    {
      "inputs": [],
      "name": "getCurrentUnderlyingPrice",
      "outputs": [
        {
          "internalType": "uint256",
          "name": "",
          "type": "uint256"
        }
      ],
      "stateMutability": "view",
      "type": "function"
    },
    {
      "inputs": [],
      "name": "getLogicAddress",
      "outputs": [
        {
          "internalType": "address",
          "name": "logicAddress",
          "type": "address"
        }
      ],
      "stateMutability": "view",
      "type": "function"
    },
    {
      "inputs": [
        {
          "internalType": "uint64",
          "name": "seriesId",
          "type": "uint64"
        }
      ],
      "name": "getPriceForSeries",
      "outputs": [
        {
          "internalType": "uint256",
          "name": "",
          "type": "uint256"
        }
      ],
      "stateMutability": "view",
      "type": "function"
    },
    {
      "inputs": [
        {
          "internalType": "uint64",
          "name": "seriesId",
          "type": "uint64"
        }
      ],
      "name": "getSeries",
      "outputs": [
        {
          "components": [
            {
              "internalType": "uint40",
              "name": "expirationDate",
              "type": "uint40"
            },
            {
              "internalType": "bool",
              "name": "isPutOption",
              "type": "bool"
            },
            {
              "components": [
                {
                  "internalType": "address",
                  "name": "underlyingToken",
                  "type": "address"
                },
                {
                  "internalType": "address",
                  "name": "priceToken",
                  "type": "address"
                },
                {
                  "internalType": "address",
                  "name": "collateralToken",
                  "type": "address"
                }
              ],
              "internalType": "struct ISeriesController.Tokens",
              "name": "tokens",
              "type": "tuple"
            },
            {
              "internalType": "uint256",
              "name": "strikePrice",
              "type": "uint256"
            }
          ],
          "internalType": "struct ISeriesController.Series",
          "name": "",
          "type": "tuple"
        }
      ],
      "stateMutability": "view",
      "type": "function"
    },
    {
      "inputs": [
        {
          "internalType": "uint64",
          "name": "_seriesId",
          "type": "uint64"
        }
      ],
      "name": "getVolatility",
      "outputs": [
        {
          "internalType": "uint256",
          "name": "",
          "type": "uint256"
        }
      ],
      "stateMutability": "view",
      "type": "function"
    },
    {
      "inputs": [
        {
          "internalType": "contract ISeriesController",
          "name": "_seriesController",
          "type": "address"
        },
        {
          "internalType": "contract IAddressesProvider",
          "name": "_addressesProvider",
          "type": "address"
        },
        {
          "internalType": "contract IERC20",
          "name": "_underlyingToken",
          "type": "address"
        },
        {
          "internalType": "contract IERC20",
          "name": "_priceToken",
          "type": "address"
        },
        {
          "internalType": "contract IERC20",
          "name": "_collateralToken",
          "type": "address"
        },
        {
          "internalType": "contract ISimpleToken",
          "name": "_lpToken",
          "type": "address"
        },
        {
          "internalType": "uint16",
          "name": "_tradeFeeBasisPoints",
          "type": "uint16"
        }
      ],
      "name": "initialize",
      "outputs": [],
      "stateMutability": "nonpayable",
      "type": "function"
    },
    {
      "inputs": [],
      "name": "ivDriftRate",
      "outputs": [
        {
          "internalType": "uint16",
          "name": "",
          "type": "uint16"
        }
      ],
      "stateMutability": "view",
      "type": "function"
    },
    {
      "inputs": [],
      "name": "ivShift",
      "outputs": [
        {
          "internalType": "int256",
          "name": "",
          "type": "int256"
        }
      ],
      "stateMutability": "view",
      "type": "function"
    },
    {
      "inputs": [],
      "name": "lightAirswapAddress",
      "outputs": [
        {
          "internalType": "address",
          "name": "",
          "type": "address"
        }
      ],
      "stateMutability": "view",
      "type": "function"
    },
    {
      "inputs": [],
      "name": "lockedCollateral",
      "outputs": [
        {
          "internalType": "uint256",
          "name": "",
          "type": "uint256"
        }
      ],
      "stateMutability": "view",
      "type": "function"
    },
    {
      "inputs": [],
      "name": "lpToken",
      "outputs": [
        {
          "internalType": "contract ISimpleToken",
          "name": "",
          "type": "address"
        }
      ],
      "stateMutability": "view",
      "type": "function"
    },
    {
      "inputs": [],
      "name": "maxOptionFeeBasisPoints",
      "outputs": [
        {
          "internalType": "uint16",
          "name": "",
          "type": "uint16"
        }
      ],
      "stateMutability": "view",
      "type": "function"
    },
    {
      "inputs": [
        {
          "internalType": "address",
          "name": "",
          "type": "address"
        },
        {
          "internalType": "address",
          "name": "",
          "type": "address"
        },
        {
          "internalType": "uint256[]",
          "name": "",
          "type": "uint256[]"
        },
        {
          "internalType": "uint256[]",
          "name": "",
          "type": "uint256[]"
        },
        {
          "internalType": "bytes",
          "name": "",
          "type": "bytes"
        }
      ],
      "name": "onERC1155BatchReceived",
      "outputs": [
        {
          "internalType": "bytes4",
          "name": "",
          "type": "bytes4"
        }
      ],
      "stateMutability": "nonpayable",
      "type": "function"
    },
    {
      "inputs": [
        {
          "internalType": "address",
          "name": "",
          "type": "address"
        },
        {
          "internalType": "address",
          "name": "",
          "type": "address"
        },
        {
          "internalType": "uint256",
          "name": "",
          "type": "uint256"
        },
        {
          "internalType": "uint256",
          "name": "",
          "type": "uint256"
        },
        {
          "internalType": "bytes",
          "name": "",
          "type": "bytes"
        }
      ],
      "name": "onERC1155Received",
      "outputs": [
        {
          "internalType": "bytes4",
          "name": "",
          "type": "bytes4"
        }
      ],
      "stateMutability": "nonpayable",
      "type": "function"
    },
    {
      "inputs": [],
      "name": "owner",
      "outputs": [
        {
          "internalType": "address",
          "name": "",
          "type": "address"
        }
      ],
      "stateMutability": "view",
      "type": "function"
    },
    {
      "inputs": [],
      "name": "priceToken",
      "outputs": [
        {
          "internalType": "contract IERC20",
          "name": "",
          "type": "address"
        }
      ],
      "stateMutability": "view",
      "type": "function"
    },
    {
      "inputs": [
        {
          "internalType": "uint256",
          "name": "collateralAmount",
          "type": "uint256"
        },
        {
          "internalType": "uint256",
          "name": "lpTokenMinimum",
          "type": "uint256"
        }
      ],
      "name": "provideCapital",
      "outputs": [],
      "stateMutability": "nonpayable",
      "type": "function"
    },
    {
      "inputs": [],
      "name": "proxiableUUID",
      "outputs": [
        {
          "internalType": "bytes32",
          "name": "",
          "type": "bytes32"
        }
      ],
      "stateMutability": "pure",
      "type": "function"
    },
    {
      "inputs": [],
      "name": "renounceOwnership",
      "outputs": [],
      "stateMutability": "nonpayable",
      "type": "function"
    },
    {
      "inputs": [],
      "name": "seriesController",
      "outputs": [
        {
          "internalType": "contract ISeriesController",
          "name": "",
          "type": "address"
        }
      ],
      "stateMutability": "view",
      "type": "function"
    },
    {
      "inputs": [
        {
          "internalType": "uint64",
          "name": "",
          "type": "uint64"
        }
      ],
      "name": "seriesVolatilities",
      "outputs": [
        {
          "internalType": "uint256",
          "name": "volatility",
          "type": "uint256"
        },
        {
          "internalType": "uint256",
          "name": "updatedAt",
          "type": "uint256"
        }
      ],
      "stateMutability": "view",
      "type": "function"
    },
    {
      "inputs": [
        {
          "internalType": "int256",
          "name": "_ivShift",
          "type": "int256"
        },
        {
          "internalType": "bool",
          "name": "_dynamicIvEnabled",
          "type": "bool"
        },
        {
          "internalType": "uint16",
          "name": "_ivDriftRate",
          "type": "uint16"
        }
      ],
      "name": "setAmmConfig",
      "outputs": [],
      "stateMutability": "nonpayable",
      "type": "function"
    },
    {
      "inputs": [
        {
          "internalType": "uint16",
          "name": "_tradeFeeBasisPoints",
          "type": "uint16"
        },
        {
          "internalType": "uint16",
          "name": "_maxOptionFeeBasisPoints",
          "type": "uint16"
        },
        {
          "internalType": "address",
          "name": "_feeDestinationAddress",
          "type": "address"
        }
      ],
      "name": "setTradingFeeParams",
      "outputs": [],
      "stateMutability": "nonpayable",
      "type": "function"
    },
    {
      "inputs": [
        {
          "internalType": "bytes4",
          "name": "interfaceId",
          "type": "bytes4"
        }
      ],
      "name": "supportsInterface",
      "outputs": [
        {
          "internalType": "bool",
          "name": "",
          "type": "bool"
        }
      ],
      "stateMutability": "view",
      "type": "function"
    },
    {
      "inputs": [],
      "name": "tradeFeeBasisPoints",
      "outputs": [
        {
          "internalType": "uint16",
          "name": "",
          "type": "uint16"
        }
      ],
      "stateMutability": "view",
      "type": "function"
    },
    {
      "inputs": [
        {
          "internalType": "address",
          "name": "newOwner",
          "type": "address"
        }
      ],
      "name": "transferOwnership",
      "outputs": [],
      "stateMutability": "nonpayable",
      "type": "function"
    },
    {
      "inputs": [],
      "name": "underlyingToken",
      "outputs": [
        {
          "internalType": "contract IERC20",
          "name": "",
          "type": "address"
        }
      ],
      "stateMutability": "view",
      "type": "function"
    },
    {
      "inputs": [
        {
          "internalType": "address",
          "name": "_addressesProvider",
          "type": "address"
        }
      ],
      "name": "updateAddressesProvider",
      "outputs": [],
      "stateMutability": "nonpayable",
      "type": "function"
    },
    {
      "inputs": [
        {
          "internalType": "address",
          "name": "_newImplementation",
          "type": "address"
        }
      ],
      "name": "updateImplementation",
      "outputs": [],
      "stateMutability": "nonpayable",
      "type": "function"
    },
    {
      "inputs": [],
      "name": "volatilityFactor",
      "outputs": [
        {
          "internalType": "uint256",
          "name": "",
          "type": "uint256"
        }
      ],
      "stateMutability": "view",
      "type": "function"
    },
    {
      "inputs": [
        {
          "internalType": "uint256",
          "name": "lpTokenAmount",
          "type": "uint256"
        },
        {
          "internalType": "bool",
          "name": "sellTokens",
          "type": "bool"
        },
        {
          "internalType": "uint256",
          "name": "collateralMinimum",
          "type": "uint256"
        }
      ],
      "name": "withdrawCapital",
      "outputs": [],
      "stateMutability": "nonpayable",
      "type": "function"
    },
    {
      "inputs": [
        {
          "internalType": "uint256[]",
          "name": "expirationDates",
          "type": "uint256[]"
        }
      ],
      "name": "withdrawLockedCollateral",
      "outputs": [],
      "stateMutability": "nonpayable",
      "type": "function"
    }
  ],
  "bytecode": {
    "object": "0x6080604052610102805460ff1916905534801561001b57600080fd5b50615941806200002c6000396000f3fe608060405234801561001057600080fd5b50600436106102bb5760003560e01c80637d138bca11610182578063b9d9252e116100e9578063c8f3e555116100a2578063d694fd7c1161007c578063d694fd7c1461056d578063f23a6e6114610580578063f2fde38b14610593578063fd18622c146105a6576102bb565b8063c8f3e5551461054a578063c98c05b71461055d578063d0269f5314610565576102bb565b8063b9d9252e146104f7578063bb736f4b146104ff578063bc197c8114610507578063bd36068c14610527578063bd4c0cb11461052f578063c3bf70f114610542576102bb565b8063a9c862fe1161013b578063a9c862fe14610498578063abd108ba146104ab578063ad078922146104b3578063b1c269b4146104d4578063b2016bd4146104e7578063b952cc4a146104ef576102bb565b80637d138bca146104455780637e5077421461044d57806388edea79146104555780638da5cb5b146104685780638fdc057f14610470578063a4b4e1a214610490576102bb565b80632ff6fe76116102265780635fcbd285116101df5780635fcbd285146103f257806365514909146103fa5780637096335b1461040f578063715018a61461042257806371c654ee1461042a578063736525cf1461043d576102bb565b80632ff6fe761461039f57806336211a80146103a75780633b26cf5c146103bc57806348257018146103cf57806350ecb7d8146103e257806352d1902d146103ea576102bb565b806322c4e7c61161027857806322c4e7c6146103415780632495a599146103545780632824c1461461035c57806328f125041461036f5780632a85cfd5146103845780632c1f73b61461038c576102bb565b806301ffc9a7146102c057806302504213146102e9578063025b22bc146102fe5780630323a05c1461031157806303cdf7fe14610326578063219a98221461032e575b600080fd5b6102d36102ce366004614997565b6105ae565b6040516102e09190614f72565b60405180910390f35b6102fc6102f7366004614c7c565b6105db565b005b6102fc61030c3660046147ea565b61087d565b6103196108f7565b6040516102e09190614e2d565b61031961090d565b6102fc61033c3660046147ea565b61091d565b6102fc61034f366004614931565b6109b3565b610319610b77565b6102fc61036a366004614c7c565b610b86565b610377610bf4565b6040516102e09190615455565b610319610c04565b6102fc61039a366004614cc8565b610c14565b6103196112c6565b6103af6112d5565b6040516102e09190614fbe565b6102fc6103ca366004614c24565b611432565b6102fc6103dd366004614c5b565b61187b565b6103af611c1f565b6103af611c26565b610319611c38565b610402611c47565b6040516102e09190614f5f565b6103af61041d366004614c5b565b611d18565b6102fc611ddd565b6102fc6104383660046149bf565b611e28565b6102fc612035565b61031961215a565b6103af6121d8565b6102fc610463366004614a6f565b6121df565b610319612290565b61048361047e366004614c7c565b61229f565b6040516102e091906153cf565b6103af612358565b6103af6104a6366004614c7c565b61245e565b6103196125a8565b6104c66104c1366004614c7c565b6125bb565b6040516102e09291906154a2565b6102fc6104e2366004614bde565b6125d5565b6103196126e3565b6103af6126f2565b6103196126f9565b6103af612709565b61051a610515366004614822565b61270f565b6040516102e09190614fc7565b610319612720565b6103af61053d366004614c96565b61272f565b610377612dc1565b6103af610558366004614c7c565b612dd3565b6103af612ed6565b6102d3612f66565b6103af61057b366004614c96565b612f70565b61051a61058e3660046148cb565b61374b565b6102fc6105a13660046147ea565b61375c565b6103776137ca565b60006001600160e01b0319821663141260a360e11b14806105d357506105d3826137d5565b90505b919050565b60006105e6826137fa565b905060006105f383613821565b61010054604051627eeac760e11b81529192506000916001600160a01b039091169062fdd58e9061062a9030908790600401614ed4565b60206040518083038186803b15801561064257600080fd5b505afa158015610656573d6000803e3d6000fd5b505050506040513d601f19601f8201168201806040525081019061067a919061497f565b9050801561070b5760ff5460405163125a84cd60e11b81526001600160a01b03909116906324b5099a906106b790879085906000906004016155cb565b602060405180830381600087803b1580156106d157600080fd5b505af11580156106e5573d6000803e3d6000fd5b505050506040513d601f19601f82011682018060405250810190610709919061497f565b505b61010054604051627eeac760e11b81526000916001600160a01b03169062fdd58e9061073d9030908790600401614ed4565b60206040518083038186803b15801561075557600080fd5b505afa158015610769573d6000803e3d6000fd5b505050506040513d601f19601f8201168201806040525081019061078d919061497f565b905080156108295760ff54604051632df5582b60e01b81526000916001600160a01b031690632df5582b906107c890899086906004016155b2565b602060405180830381600087803b1580156107e257600080fd5b505af11580156107f6573d6000803e3d6000fd5b505050506040513d601f19601f8201168201806040525081019061081a919061497f565b905061082786828461382e565b505b61083e6101036001600160401b0387166139e7565b507fb351e3fb12f8e3eaa3fe3e70f3e08111a7e195857585cc413fe5e75bcb3cc0b08560405161086e9190615560565b60405180910390a15050505050565b6108856139f3565b6001600160a01b0316610896612290565b6001600160a01b0316146108c55760405162461bcd60e51b81526004016108bc906151f5565b60405180910390fd5b6001600160a01b0381166108eb5760405162461bcd60e51b81526004016108bc90615133565b6108f4816139f7565b50565b610106546201000090046001600160a01b031681565b610100546001600160a01b031681565b6109256139f3565b6001600160a01b0316610936612290565b6001600160a01b03161461095c5760405162461bcd60e51b81526004016108bc906151f5565b61010a80546001600160a01b0319166001600160a01b0383161790556040517ff9b5f006ca406b6fbaf22bf6ff514d62608dbc3301342d593f85103a0f5da4e3906109a8908390614e2d565b60405180910390a150565b60026101055414156109d75760405162461bcd60e51b81526004016108bc90615398565b6002610105556109e5612035565b6000805b8251811015610b3d5761010a60009054906101000a90046001600160a01b03166001600160a01b03166312bdc5e06040518163ffffffff1660e01b815260040160206040518083038186803b158015610a4157600080fd5b505afa158015610a55573d6000803e3d6000fd5b505050506040513d601f19601f82011682018060405250810190610a799190614806565b6001600160a01b031663a20a8045848381518110610aa757634e487b7160e01b600052603260045260246000fd5b6020026020010151336040518363ffffffff1660e01b8152600401610acd92919061548b565b602060405180830381600087803b158015610ae757600080fd5b505af1158015610afb573d6000803e3d6000fd5b505050506040513d601f19601f82011682018060405250810190610b1f919061497f565b610b299083615679565b915080610b3581615851565b9150506109e9565b508061010d6000828254610b51919061580e565b909155505060fe54610b6d906001600160a01b03163383613ad4565b5050600161010555565b60fc546001600160a01b031681565b60ff546001600160a01b03163314610bb05760405162461bcd60e51b81526004016108bc9061519e565b603c610bbd610103613b2a565b1115610bdb5760405162461bcd60e51b81526004016108bc90615116565b610bf06101036001600160401b038316613b35565b5050565b61010c54610100900461ffff1681565b610107546001600160a01b031681565b6002610105541415610c385760405162461bcd60e51b81526004016108bc90615398565b60026101055561010a5460408051639a18eeb360e01b815290516001600160a01b0390921691639a18eeb391600480820192602092909190829003018186803b158015610c8457600080fd5b505afa158015610c98573d6000803e3d6000fd5b505050506040513d601f19601f82011682018060405250810190610cbc9190614806565b6001600160a01b0316336001600160a01b031614610cec5760405162461bcd60e51b81526004016108bc906152f2565b610d016101036001600160401b038b16613b41565b610d1d5760405162461bcd60e51b81526004016108bc906151bb565b61010a5460408051639d2d4dc960e01b815290516000926001600160a01b031691639d2d4dc9916004808301926020929190829003018186803b158015610d6357600080fd5b505afa158015610d77573d6000803e3d6000fd5b505050506040513d601f19601f82011682018060405250810190610d9b9190614806565b90506001600160a01b038116610dc35760405162461bcd60e51b81526004016108bc9061522a565b6000610dce8b6137fa565b61010054604051627eeac760e11b81529192506000916001600160a01b039091169062fdd58e90610e059030908690600401614ed4565b60206040518083038186803b158015610e1d57600080fd5b505afa158015610e31573d6000803e3d6000fd5b505050506040513d601f19601f82011682018060405250810190610e55919061497f565b90508681101561107a57600060ff60009054906101000a90046001600160a01b03166001600160a01b031663dc22cb6a8e6040518263ffffffff1660e01b8152600401610ea29190615560565b60c06040518083038186803b158015610eba57600080fd5b505afa158015610ece573d6000803e3d6000fd5b505050506040513d601f19601f82011682018060405250810190610ef29190614af9565b60ff549091506000906001600160a01b031663da5ae2eb83610f14868d61580e565b6040518363ffffffff1660e01b8152600401610f3192919061541a565b60206040518083038186803b158015610f4957600080fd5b505afa158015610f5d573d6000803e3d6000fd5b505050506040513d601f19601f82011682018060405250810190610f81919061497f565b60fe5460ff5460405163095ea7b360e01b81529293506001600160a01b039182169263095ea7b392610fb99216908590600401614ed4565b602060405180830381600087803b158015610fd357600080fd5b505af1158015610fe7573d6000803e3d6000fd5b505050506040513d601f19601f8201168201806040525081019061100b9190614963565b5060ff546001600160a01b031663ec41d4ef8f611028868d61580e565b6040518363ffffffff1660e01b81526004016110459291906155b2565b600060405180830381600087803b15801561105f57600080fd5b505af1158015611073573d6000803e3d6000fd5b5050505050505b6101005460405163a22cb46560e01b81526001600160a01b039091169063a22cb465906110ae908690600190600401614eb9565b600060405180830381600087803b1580156110c857600080fd5b505af11580156110dc573d6000803e3d6000fd5b50505050826001600160a01b031663079008868c8c8c60fe60009054906101000a90046001600160a01b03168d61010060009054906101000a90046001600160a01b0316898f8f8f8f6040518c63ffffffff1660e01b815260040161114b9b9a999897969594939291906154b0565b600060405180830381600087803b15801561116557600080fd5b505af1158015611179573d6000803e3d6000fd5b50506101005460405163a22cb46560e01b81526001600160a01b03909116925063a22cb46591506111b1908690600090600401614eb9565b600060405180830381600087803b1580156111cb57600080fd5b505af11580156111df573d6000803e3d6000fd5b5050505060006111ef888a611d18565b90508015611274576101065460fe5461121c916001600160a01b0391821691620100009091041683613ad4565b61010660029054906101000a90046001600160a01b03166001600160a01b03167f7f02c27a7993cfdb9c0baf01bc7400a99bdb9b6db503fb5dad69a4afe4a415ed8260405161126b9190614fbe565b60405180910390a25b7f17962beb3fc6a7161941050be5382ad578714419e2eaa956e0b909ba5e67fd1f8a8e8a8c6040516112a99493929190614f30565b60405180910390a150506001610105555050505050505050505050565b60fd546001600160a01b031681565b60008061010b5461010a60009054906101000a90046001600160a01b03166001600160a01b03166310a692e76040518163ffffffff1660e01b815260040160206040518083038186803b15801561132b57600080fd5b505afa15801561133f573d6000803e3d6000fd5b505050506040513d601f19601f820116820180604052508101906113639190614806565b60fc5460fd5460405163956044d960e01b81526001600160a01b039384169363956044d99361139b9390821692911690600401614e41565b60206040518083038186803b1580156113b357600080fd5b505afa1580156113c7573d6000803e3d6000fd5b505050506040513d601f19601f820116820180604052508101906113eb919061497f565b6113fa906402540be4006156fe565b6114049190615638565b9050670429d069189e0000811361142d5760405162461bcd60e51b81526004016108bc906152b8565b905090565b60026101055414156114565760405162461bcd60e51b81526004016108bc90615398565b6002610105558115806114695750600081115b6114855760405162461bcd60e51b81526004016108bc90615331565b60fe546040516370a0823160e01b81526000916001600160a01b0316906370a08231906114b6903390600401614e2d565b60206040518083038186803b1580156114ce57600080fd5b505afa1580156114e2573d6000803e3d6000fd5b505050506040513d601f19601f82011682018060405250810190611506919061497f565b9050600060fb60009054906101000a90046001600160a01b03166001600160a01b03166318160ddd6040518163ffffffff1660e01b815260040160206040518083038186803b15801561155857600080fd5b505afa15801561156c573d6000803e3d6000fd5b505050506040513d601f19601f82011682018060405250810190611590919061497f565b60fb54604051632770a7eb60e21b81529192506001600160a01b031690639dc29fac906115c39033908990600401614ed4565b600060405180830381600087803b1580156115dd57600080fd5b505af11580156115f1573d6000803e3d6000fd5b505050506115fd612035565b6000611607612ed6565b90506000826116168884615781565b61162091906156ea565b61162a908361580e565b90508515611663578287106116515760405162461bcd60e51b81526004016108bc90615247565b61165c878483613b4d565b9050611755565b61010a60009054906101000a90046001600160a01b03166001600160a01b03166312bdc5e06040518163ffffffff1660e01b815260040160206040518083038186803b1580156116b257600080fd5b505afa1580156116c6573d6000803e3d6000fd5b505050506040513d601f19601f820116820180604052508101906116ea9190614806565b6001600160a01b031663c9d868028885336117036112d5565b6040518563ffffffff1660e01b81526004016117229493929190615512565b600060405180830381600087803b15801561173c57600080fd5b505af1158015611750573d6000803e3d6000fd5b505050505b61177633611763838561580e565b60fe546001600160a01b03169190613ad4565b60fe546040516370a0823160e01b815260009186916001600160a01b03909116906370a08231906117ab903390600401614e2d565b60206040518083038186803b1580156117c357600080fd5b505afa1580156117d7573d6000803e3d6000fd5b505050506040513d601f19601f820116820180604052508101906117fb919061497f565b611805919061580e565b90508615806118145750858110155b6118305760405162461bcd60e51b81526004016108bc90615314565b7ff7f5b08c1cb6009189fe977fb5c4665b4be8a7eff9cb01f0dca3419a1876668b33828a60405161186393929190614eed565b60405180910390a15050600161010555505050505050565b600261010554141561189f5760405162461bcd60e51b81526004016108bc90615398565b60026101055560fe546118bd906001600160a01b0316333085613e29565b60fb60009054906101000a90046001600160a01b03166001600160a01b03166318160ddd6040518163ffffffff1660e01b815260040160206040518083038186803b15801561190b57600080fd5b505afa15801561191f573d6000803e3d6000fd5b505050506040513d601f19601f82011682018060405250810190611943919061497f565b6119eb5760fb546040516340c10f1960e01b81526001600160a01b03909116906340c10f19906119799033908690600401614ed4565b600060405180830381600087803b15801561199357600080fd5b505af11580156119a7573d6000803e3d6000fd5b505050507fe337a2229426e90a5cd240c2f297ff2996f8eb47424c5b228dc36313c67a7ec33383846040516119de93929190614eed565b60405180910390a1610b6d565b6119f3612035565b60006119fd61215a565b6001600160a01b031663ee9e2b4c6000611a15611c47565b611a1d612ed6565b30611a266112d5565b6040518663ffffffff1660e01b8152600401611a46959493929190614f7d565b60206040518083038186803b158015611a5e57600080fd5b505afa158015611a72573d6000803e3d6000fd5b505050506040513d601f19601f82011682018060405250810190611a96919061497f565b9050600060fb60009054906101000a90046001600160a01b03166001600160a01b03166318160ddd6040518163ffffffff1660e01b815260040160206040518083038186803b158015611ae857600080fd5b505afa158015611afc573d6000803e3d6000fd5b505050506040513d601f19601f82011682018060405250810190611b20919061497f565b90506000611b2e858461580e565b611b388385615781565b611b4291906156ea565b90506000611b50838361580e565b905084811015611b725760405162461bcd60e51b81526004016108bc90615314565b60fb546040516340c10f1960e01b81526001600160a01b03909116906340c10f1990611ba49033908590600401614ed4565b600060405180830381600087803b158015611bbe57600080fd5b505af1158015611bd2573d6000803e3d6000fd5b505050507fe337a2229426e90a5cd240c2f297ff2996f8eb47424c5b228dc36313c67a7ec3338783604051611c0993929190614eed565b60405180910390a1505050505050600161010555565b61010b5481565b6000805160206158ec83398151915290565b60fb546001600160a01b031681565b60606000611c56610103613b2a565b6001600160401b03811115611c7b57634e487b7160e01b600052604160045260246000fd5b604051908082528060200260200182016040528015611ca4578160200160208202803683370190505b50905060005b611cb5610103613b2a565b811015611d1257611cc861010382613e50565b828281518110611ce857634e487b7160e01b600052603260045260246000fd5b6001600160401b039092166020928302919091019091015280611d0a81615851565b915050611caa565b50905090565b61010054600090600160a01b900461ffff1615801590611d3e57506101065461ffff1615155b8015611d5b5750610106546201000090046001600160a01b031615155b15611dd35761010054600090819061271090611d8290600160a01b900461ffff1687615781565b611d8c91906156ea565b6101065490915060009061271090611da89061ffff1687615781565b611db291906156ea565b905080821015611dc457819250611dc8565b8092505b829350505050611dd7565b5060005b92915050565b611de56139f3565b6001600160a01b0316611df6612290565b6001600160a01b031614611e1c5760405162461bcd60e51b81526004016108bc906151f5565b611e266000613e5c565b565b6101025460ff1615611e4c5760405162461bcd60e51b81526004016108bc906151d8565b610102805460ff1916600117905560ff80546001600160a01b03808a166001600160a01b0319928316811790935561010a8054918a1691909216179055604080516301e6fbff60e11b815290516303cdf7fe91600480820192602092909190829003018186803b158015611ebf57600080fd5b505afa158015611ed3573d6000803e3d6000fd5b505050506040513d601f19601f82011682018060405250810190611ef79190614806565b61010080546001600160a01b0319166001600160a01b03928316179081905560ff5460405163a22cb46560e01b81529183169263a22cb46592611f439290911690600190600401614eb9565b600060405180830381600087803b158015611f5d57600080fd5b505af1158015611f71573d6000803e3d6000fd5b5050610100805461ffff60a01b1916600160a01b61ffff861602179055505060fc80546001600160a01b03199081166001600160a01b038881169190911790925560fd8054821687841617905560fe8054821686841617905560fb8054909116918416919091179055611fe2613eae565b60fb546040517fd3d162bfa5462901258cd3d1691a5eea9ef4506e2b789cabe999a6f308f2593b91612024916001600160a01b03909116906000908b90614fdc565b60405180910390a150505050505050565b600061203f611c47565b905060005b8151811015610bf057600082828151811061206f57634e487b7160e01b600052603260045260246000fd5b6020026020010151905060018081111561209957634e487b7160e01b600052602160045260246000fd5b60ff54604051632df23d1560e01b81526001600160a01b0390911690632df23d15906120c9908590600401615560565b60206040518083038186803b1580156120e157600080fd5b505afa1580156120f5573d6000803e3d6000fd5b505050506040513d601f19601f820116820180604052508101906121199190614a50565b600181111561213857634e487b7160e01b600052602160045260246000fd5b141561214757612147816105db565b508061215281615851565b915050612044565b61010a5460408051633e89c5e560e11b815290516000926001600160a01b031691637d138bca916004808301926020929190829003018186803b1580156121a057600080fd5b505afa1580156121b4573d6000803e3d6000fd5b505050506040513d601f19601f8201168201806040525081019061142d9190614806565b6101015481565b6121e76139f3565b6001600160a01b03166121f8612290565b6001600160a01b03161461221e5760405162461bcd60e51b81526004016108bc906151f5565b61010b83905561010c805460ff19168315151762ffff00191661010061ffff848116820292909217928390556040517f3d4bf78e5ec1491f04c23f425289b2585483f01d0fac0fce8be9dee6464051d09361228393889360ff83169392041690614fff565b60405180910390a1505050565b60c9546001600160a01b031690565b6122a761468a565b6122bc6101036001600160401b038416613b41565b6122d85760405162461bcd60e51b81526004016108bc906151bb565b60ff54604051636e1165b560e11b81526001600160a01b039091169063dc22cb6a90612308908590600401615560565b60c06040518083038186803b15801561232057600080fd5b505afa158015612334573d6000803e3d6000fd5b505050506040513d601f19601f820116820180604052508101906105d39190614af9565b61010a5460408051631f94a27560e31b815290516000926001600160a01b03169163fca513a8916004808301926020929190829003018186803b15801561239e57600080fd5b505afa1580156123b2573d6000803e3d6000fd5b505050506040513d601f19601f820116820180604052508101906123d69190614806565b60fc5460fd5460405163db16a55560e01b81526001600160a01b039384169363db16a5559361240e9390821692911690600401614e41565b60206040518083038186803b15801561242657600080fd5b505afa15801561243a573d6000803e3d6000fd5b505050506040513d601f19601f8201168201806040525081019061142d919061497f565b60006124756101036001600160401b038416613b41565b6124915760405162461bcd60e51b81526004016108bc906151bb565b60ff54604051636e1165b560e11b81526000916001600160a01b03169063dc22cb6a906124c2908690600401615560565b60c06040518083038186803b1580156124da57600080fd5b505afa1580156124ee573d6000803e3d6000fd5b505050506040513d601f19601f820116820180604052508101906125129190614af9565b905061251c61215a565b6001600160a01b031663ba8338918261253486612dd3565b6040518363ffffffff1660e01b815260040161255192919061541a565b60206040518083038186803b15801561256957600080fd5b505afa15801561257d573d6000803e3d6000fd5b505050506040513d601f19601f820116820180604052508101906125a1919061497f565b9392505050565b6000805160206158ec8339815191525490565b610109602052600090815260409020805460019091015482565b6125dd6139f3565b6001600160a01b03166125ee612290565b6001600160a01b0316146126145760405162461bcd60e51b81526004016108bc906151f5565b610100805461ffff60a01b1916600160a01b61ffff8681169190910291909117909155610106805461ffff19169184169190911790556001600160a01b0381166126705760405162461bcd60e51b81526004016108bc906152d5565b610106805462010000600160b01b031916620100006001600160a01b0384811682029290921792839055610100546040517fde26641fc820c866f45afc45ed4f5ddc58984bcf6ea2f417861044e86606b2f39461228394600160a01b90930461ffff908116949082169391041690615464565b60fe546001600160a01b031681565b61010d5481565b610108546001600160a01b031681565b6103e881565b63bc197c8160e01b95945050505050565b60ff546001600160a01b031681565b600060026101055414156127555760405162461bcd60e51b81526004016108bc90615398565b6002610105556127706101036001600160401b038616613b41565b61278c5760405162461bcd60e51b81526004016108bc906151bb565b60ff54604051632df23d1560e01b81526000916001600160a01b031690632df23d15906127bd908890600401615560565b60206040518083038186803b1580156127d557600080fd5b505afa1580156127e9573d6000803e3d6000fd5b505050506040513d601f19601f8201168201806040525081019061280d9190614a50565b600181111561282c57634e487b7160e01b600052602160045260246000fd5b146128495760405162461bcd60e51b81526004016108bc90615096565b60ff54604051636e1165b560e11b815260009182916001600160a01b039091169063dc22cb6a9061287e908990600401615560565b60c06040518083038186803b15801561289657600080fd5b505afa1580156128aa573d6000803e3d6000fd5b505050506040513d601f19601f820116820180604052508101906128ce9190614af9565b905060006128da612358565b90506000806128e98984613f32565b915091506000821161290d5760405162461bcd60e51b81526004016108bc906150f9565b612922898961291a612ed6565b856001614108565b60ff549095506001600160a01b0316633d8c6e85856129418b86615781565b866040518463ffffffff1660e01b815260040161296093929190615435565b60206040518083038186803b15801561297857600080fd5b505afa15801561298c573d6000803e3d6000fd5b505050506040513d601f19601f820116820180604052508101906129b0919061497f565b6129c286670de0b6b3a7640000615781565b11156129e05760405162461bcd60e51b81526004016108bc90615264565b61010c5460ff1615612b7d5760ff546040516343dd472b60e01b81526000916001600160a01b0316906343dd472b90612a1d908d90600401615560565b60206040518083038186803b158015612a3557600080fd5b505afa158015612a49573d6000803e3d6000fd5b505050506040513d601f19601f82011682018060405250810190612a6d9190614963565b15612b345760ff54604051633d8c6e8560e01b815285916001600160a01b031690633d8c6e8590612aaa9089908e906305f5e10090600401615435565b60206040518083038186803b158015612ac257600080fd5b505afa158015612ad6573d6000803e3d6000fd5b505050506040513d601f19601f82011682018060405250810190612afa919061497f565b612b0f886a52b7d2dcc80cd2e4000000615781565b612b1991906156ea565b612b2391906156ea565b612b2d908461580e565b9050612b5e565b88612b4787670de0b6b3a7640000615781565b612b5191906156ea565b612b5b908461580e565b90505b612b7a8a612b6b8361586c565b612b748d612dd3565b856141a1565b50505b5050506000612b8c8684611d18565b905084612b99828561580e565b1015612bb75760405162461bcd60e51b81526004016108bc90615314565b6000612bc2886137fa565b61010054604051637921219560e11b81529192506060916001600160a01b039091169063f242432a90612c01903390309087908e908890600401614e7f565b600060405180830381600087803b158015612c1b57600080fd5b505af1158015612c2f573d6000803e3d6000fd5b505060ff5460405163407cf5af60e11b8152612ccd93508c925088916001600160a01b0316906380f9eb5e90612c6b9085908f906004016155b2565b602060405180830381600087803b158015612c8557600080fd5b505af1158015612c99573d6000803e3d6000fd5b505050506040513d601f19601f82011682018060405250810190612cbd919061497f565b612cc7919061580e565b8a61382e565b612cdb33611763858861580e565b8215612d5e576101065460fe54612d06916001600160a01b0391821691620100009091041685613ad4565b61010660029054906101000a90046001600160a01b03166001600160a01b03167f7f02c27a7993cfdb9c0baf01bc7400a99bdb9b6db503fb5dad69a4afe4a415ed84604051612d559190614fbe565b60405180910390a25b7f8a1b3f58d5a9a30a8aa47eec24adb52f499676f8a44e310d16ffc21058e5e7ee338a8a612d8c878a61580e565b604051612d9c9493929190614f30565b60405180910390a1612dae838661580e565b6001610105559998505050505050505050565b61010054600160a01b900461ffff1681565b6001600160401b038116600090815261010960209081526040808320815180830190925280548252600101549181019190915281612e0f6112d5565b90506000826020015160001480612e265750825182145b15612e32575080612ece565b61010c54610100900461ffff16612e4d5750505190506105d6565b61010c546020840151600091610100900461ffff1690612e6d904261580e565b8551612e7990866157cf565b612e8391906156fe565b612e8d91906156bc565b8451909150612e9d908290615638565b9150600081138015612eae57508282135b80612ec35750600081128015612ec357508282125b15612ecc578291505b505b949350505050565b61010d5460fe546040516370a0823160e01b8152600092916001600160a01b0316906370a0823190612f0c903090600401614e2d565b60206040518083038186803b158015612f2457600080fd5b505afa158015612f38573d6000803e3d6000fd5b505050506040513d601f19601f82011682018060405250810190612f5c919061497f565b61142d919061580e565b61010c5460ff1681565b60006002610105541415612f965760405162461bcd60e51b81526004016108bc90615398565b600261010555612fb16101036001600160401b038616613b41565b612fcd5760405162461bcd60e51b81526004016108bc906151bb565b60ff54604051632df23d1560e01b81526000916001600160a01b031690632df23d1590612ffe908890600401615560565b60206040518083038186803b15801561301657600080fd5b505afa15801561302a573d6000803e3d6000fd5b505050506040513d601f19601f8201168201806040525081019061304e9190614a50565b600181111561306d57634e487b7160e01b600052602160045260246000fd5b1461308a5760405162461bcd60e51b81526004016108bc90615096565b60ff54604051636e1165b560e11b815260009182916001600160a01b039091169063dc22cb6a906130bf908990600401615560565b60c06040518083038186803b1580156130d757600080fd5b505afa1580156130eb573d6000803e3d6000fd5b505050506040513d601f19601f8201168201806040525081019061310f9190614af9565b9050600061311b612358565b905060008061312a8984613f32565b915091506000821161314e5760405162461bcd60e51b81526004016108bc906150f9565b61315661215a565b6001600160a01b03166309553c2f85308b61316f612ed6565b876040518663ffffffff1660e01b81526004016131909594939291906153dd565b60206040518083038186803b1580156131a857600080fd5b505afa1580156131bc573d6000803e3d6000fd5b505050506040513d601f19601f820116820180604052508101906131e0919061497f565b60ff549095506001600160a01b0316633d8c6e85856131ff8b86615781565b866040518463ffffffff1660e01b815260040161321e93929190615435565b60206040518083038186803b15801561323657600080fd5b505afa15801561324a573d6000803e3d6000fd5b505050506040513d601f19601f8201168201806040525081019061326e919061497f565b61328086670de0b6b3a7640000615781565b101561329e5760405162461bcd60e51b81526004016108bc90615264565b61010c5460ff16156134325760ff546040516343dd472b60e01b81526000916001600160a01b0316906343dd472b906132db908d90600401615560565b60206040518083038186803b1580156132f357600080fd5b505afa158015613307573d6000803e3d6000fd5b505050506040513d601f19601f8201168201806040525081019061332b9190614963565b156133f65760ff54604051633d8c6e8560e01b8152849186916001600160a01b0390911690633d8c6e859061336c908a908f906305f5e10090600401615435565b60206040518083038186803b15801561338457600080fd5b505afa158015613398573d6000803e3d6000fd5b505050506040513d601f19601f820116820180604052508101906133bc919061497f565b6133d1896a52b7d2dcc80cd2e4000000615781565b6133db91906156ea565b6133e591906156ea565b6133ef919061580e565b9050613421565b828961340a88670de0b6b3a7640000615781565b61341491906156ea565b61341e919061580e565b90505b61342f8a82612b748d612dd3565b50505b50505060006134418684611d18565b90508461344e8285615679565b111561346c5760405162461bcd60e51b81526004016108bc90615314565b61348f333061347b8487615679565b60fe546001600160a01b0316929190613e29565b8015613512576101065460fe546134ba916001600160a01b0391821691620100009091041683613ad4565b61010660029054906101000a90046001600160a01b03166001600160a01b03167f7f02c27a7993cfdb9c0baf01bc7400a99bdb9b6db503fb5dad69a4afe4a415ed826040516135099190614fbe565b60405180910390a25b60ff5460405163da5ae2eb60e01b81526000916001600160a01b03169063da5ae2eb906135459086908b9060040161541a565b60206040518083038186803b15801561355d57600080fd5b505afa158015613571573d6000803e3d6000fd5b505050506040513d601f19601f82011682018060405250810190613595919061497f565b60fe5460ff5460405163095ea7b360e01b81529293506001600160a01b039182169263095ea7b3926135cd9216908590600401614ed4565b602060405180830381600087803b1580156135e757600080fd5b505af11580156135fb573d6000803e3d6000fd5b505050506040513d601f19601f8201168201806040525081019061361f9190614963565b5060ff5460405163ec41d4ef60e01b81526001600160a01b039091169063ec41d4ef90613652908b908b906004016155b2565b600060405180830381600087803b15801561366c57600080fd5b505af1158015613680573d6000803e3d6000fd5b505061010054606092506001600160a01b0316905063f242432a30336136a58d6137fa565b8c866040518663ffffffff1660e01b81526004016136c7959493929190614e7f565b600060405180830381600087803b1580156136e157600080fd5b505af11580156136f5573d6000803e3d6000fd5b505050507f17962beb3fc6a7161941050be5382ad578714419e2eaa956e0b909ba5e67fd1f338a8a86896137299190615679565b6040516137399493929190614f30565b60405180910390a1612dae8386615679565b63f23a6e6160e01b95945050505050565b6137646139f3565b6001600160a01b0316613775612290565b6001600160a01b03161461379b5760405162461bcd60e51b81526004016108bc906151f5565b6001600160a01b0381166137c15760405162461bcd60e51b81526004016108bc906150b3565b6108f481613e5c565b6101065461ffff1681565b60006001600160e01b03198216630271189760e51b14806105d357506105d38261422a565b60006138078260026157a0565b613812906001615691565b6001600160401b031692915050565b60006138128260026157a0565b61010a54604080516295ee2f60e51b815290516000926001600160a01b0316916312bdc5e0916004808301926020929190829003018186803b15801561387357600080fd5b505afa158015613887573d6000803e3d6000fd5b505050506040513d601f19601f820116820180604052508101906138ab9190614806565b90506000816001600160a01b031663aa5a92ad30876040518363ffffffff1660e01b81526004016138dd929190614f0e565b60206040518083038186803b1580156138f557600080fd5b505afa158015613909573d6000803e3d6000fd5b505050506040513d601f19601f8201168201806040525081019061392d919061497f565b90508061393b5750506139e2565b60006139478285614243565b90506000846139568388615781565b61396091906156ea565b60405163b44caa3760e01b81529091506001600160a01b0385169063b44caa3790613993908a90859087906004016155ee565b600060405180830381600087803b1580156139ad57600080fd5b505af11580156139c1573d6000803e3d6000fd5b505050508061010d60008282546139d89190615679565b9091555050505050505b505050565b60006125a1838361425a565b3390565b806001600160a01b03166352d1902d6040518163ffffffff1660e01b815260040160206040518083038186803b158015613a3057600080fd5b505afa158015613a44573d6000803e3d6000fd5b505050506040513d601f19601f82011682018060405250810190613a68919061497f565b6000805160206158ec83398151915214613a945760405162461bcd60e51b81526004016108bc9061506e565b806000805160206158ec833981519152557feeaed647dc622e55877c30943e5c1d4feb92d1b8cfcc88d974163e9787bde9af816040516109a89190614e2d565b6139e28363a9059cbb60e01b8484604051602401613af3929190614ed4565b60408051601f198184030181529190526020810180516001600160e01b03166001600160e01b031990931692909217909152614371565b60006105d382614400565b60006125a18383614404565b60006125a1838361444e565b60008061010a60009054906101000a90046001600160a01b03166001600160a01b03166312bdc5e06040518163ffffffff1660e01b815260040160206040518083038186803b158015613b9f57600080fd5b505afa158015613bb3573d6000803e3d6000fd5b505050506040513d601f19601f82011682018060405250810190613bd79190614806565b905060005b613be7610103613b2a565b811015613e1f576000613bfc61010383613e50565b9050600060ff54604051632df23d1560e01b81526001600160a01b0390911690632df23d1590613c30908590600401615560565b60206040518083038186803b158015613c4857600080fd5b505afa158015613c5c573d6000803e3d6000fd5b505050506040513d601f19601f82011682018060405250810190613c809190614a50565b6001811115613c9f57634e487b7160e01b600052602160045260246000fd5b1415613e0c576000613cb082613821565b905060008789866001600160a01b031663aa5a92ad30876040518363ffffffff1660e01b8152600401613ce4929190614f0e565b60206040518083038186803b158015613cfc57600080fd5b505afa158015613d10573d6000803e3d6000fd5b505050506040513d601f19601f82011682018060405250810190613d34919061497f565b61010054604051627eeac760e11b81526001600160a01b039091169062fdd58e90613d659030908990600401614ed4565b60206040518083038186803b158015613d7d57600080fd5b505afa158015613d91573d6000803e3d6000fd5b505050506040513d601f19601f82011682018060405250810190613db5919061497f565b613dbf919061580e565b613dc99190615781565b613dd391906156ea565b90508015613e09576000613de68461245e565b90506000613df885848b856000614108565b9050613e04818a61580e565b985050505b50505b5080613e1781615851565b915050613bdc565b5091949350505050565b613e4a846323b872dd60e01b858585604051602401613af393929190614e5b565b50505050565b60006125a18383614466565b60c980546001600160a01b038381166001600160a01b0319831681179093556040519116919082907f8be0079c531659141344cd1fd0a4f28419497f9722a3daafe3b4186f6b6457e090600090a35050565b600054610100900460ff1680613ec7575060005460ff16155b613ee35760405162461bcd60e51b81526004016108bc90615150565b600054610100900460ff16158015613f0e576000805460ff1961ff0019909116610100171660011790555b613f166144bf565b613f1e614532565b80156108f4576000805461ff001916905550565b60ff54604051636e1165b560e11b8152600091829182916001600160a01b03169063dc22cb6a90613f67908890600401615560565b60c06040518083038186803b158015613f7f57600080fd5b505afa158015613f93573d6000803e3d6000fd5b505050506040513d601f19601f82011682018060405250810190613fb79190614af9565b9050600061010a60009054906101000a90046001600160a01b03166001600160a01b0316635d1e0af86040518163ffffffff1660e01b815260040160206040518083038186803b15801561400a57600080fd5b505afa15801561401e573d6000803e3d6000fd5b505050506040513d601f19601f820116820180604052508101906140429190614806565b90506000816001600160a01b031663e433ac4d42856000015164ffffffffff1661406c919061580e565b6140758a612dd3565b898760600151600089602001516040518763ffffffff1660e01b81526004016140a396959493929190615536565b604080518083038186803b1580156140ba57600080fd5b505afa1580156140ce573d6000803e3d6000fd5b505050506040513d601f19601f820116820180604052508101906140f29190614aac565b8051602090910151909890975095505050505050565b600061411261215a565b6001600160a01b031663c8dab8328730888888886040518763ffffffff1660e01b815260040161414796959493929190615574565b60206040518083038186803b15801561415f57600080fd5b505afa158015614173573d6000803e3d6000fd5b505050506040513d601f19601f82011682018060405250810190614197919061497f565b9695505050505050565b600080826141b786670de0b6b3a76400006156fe565b6141c191906156bc565b6141cb9085615638565b9050673782dace9d9000006706f05b59d3b20000818313156141ef578192506141fb565b808312156141fb578092505b50506001600160401b038616600090815261010960205260409020818155426001909101559050949350505050565b6001600160e01b031981166301ffc9a760e01b14919050565b600081831015614254575081611dd7565b50919050565b6000818152600183016020526040812054801561436757600061427e60018361580e565b85549091506000906142929060019061580e565b905060008660000182815481106142b957634e487b7160e01b600052603260045260246000fd5b90600052602060002001549050808760000184815481106142ea57634e487b7160e01b600052603260045260246000fd5b60009182526020808320909101929092558281526001890190915260409020849055865487908061432b57634e487b7160e01b600052603160045260246000fd5b60019003818190600052602060002001600090559055866001016000878152602001908152602001600020600090556001945050505050611dd7565b6000915050611dd7565b60006143c6826040518060400160405280602081526020017f5361666545524332303a206c6f772d6c6576656c2063616c6c206661696c6564815250856001600160a01b03166145a29092919063ffffffff16565b8051909150156139e257808060200190518101906143e49190614963565b6139e25760405162461bcd60e51b81526004016108bc9061534e565b5490565b6000614410838361444e565b61444657508154600181810184556000848152602080822090930184905584548482528286019093526040902091909155611dd7565b506000611dd7565b60009081526001919091016020526040902054151590565b815460009082106144895760405162461bcd60e51b81526004016108bc9061502c565b8260000182815481106144ac57634e487b7160e01b600052603260045260246000fd5b9060005260206000200154905092915050565b600054610100900460ff16806144d8575060005460ff16155b6144f45760405162461bcd60e51b81526004016108bc90615150565b600054610100900460ff16158015613f1e576000805460ff1961ff00199091166101001716600117905580156108f4576000805461ff001916905550565b600054610100900460ff168061454b575060005460ff16155b6145675760405162461bcd60e51b81526004016108bc90615150565b600054610100900460ff16158015614592576000805460ff1961ff0019909116610100171660011790555b613f1e61459d6139f3565b613e5c565b6060612ece8484600085856145b68561464b565b6145d25760405162461bcd60e51b81526004016108bc90615281565b600080866001600160a01b031685876040516145ee9190614e11565b60006040518083038185875af1925050503d806000811461462b576040519150601f19603f3d011682016040523d82523d6000602084013e614630565b606091505b5091509150614640828286614651565b979650505050505050565b3b151590565b606083156146605750816125a1565b8251156146705782518084602001fd5b8160405162461bcd60e51b81526004016108bc9190615019565b60408051608081018252600080825260208201529081016146a96146b6565b8152602001600081525090565b604080516060810182526000808252602082018190529181019190915290565b600082601f8301126146e6578081fd5b813560206001600160401b03821115614701576147016158b2565b80820261470f82820161560f565b838152828101908684018388018501891015614729578687fd5b8693505b8584101561474b57803583526001939093019291840191840161472d565b50979650505050505050565b600082601f830112614767578081fd5b81356001600160401b03811115614780576147806158b2565b614793601f8201601f191660200161560f565b8181528460208386010111156147a7578283fd5b816020850160208301379081016020019190915292915050565b803561ffff811681146105d657600080fd5b80356001600160401b03811681146105d657600080fd5b6000602082840312156147fb578081fd5b81356125a1816158c8565b600060208284031215614817578081fd5b81516125a1816158c8565b600080600080600060a08688031215614839578081fd5b8535614844816158c8565b94506020860135614854816158c8565b935060408601356001600160401b038082111561486f578283fd5b61487b89838a016146d6565b94506060880135915080821115614890578283fd5b61489c89838a016146d6565b935060808801359150808211156148b1578283fd5b506148be88828901614757565b9150509295509295909350565b600080600080600060a086880312156148e2578283fd5b85356148ed816158c8565b945060208601356148fd816158c8565b9350604086013592506060860135915060808601356001600160401b03811115614925578182fd5b6148be88828901614757565b600060208284031215614942578081fd5b81356001600160401b03811115614957578182fd5b612ece848285016146d6565b600060208284031215614974578081fd5b81516125a1816158dd565b600060208284031215614990578081fd5b5051919050565b6000602082840312156149a8578081fd5b81356001600160e01b0319811681146125a1578182fd5b600080600080600080600060e0888a0312156149d9578485fd5b87356149e4816158c8565b965060208801356149f4816158c8565b95506040880135614a04816158c8565b94506060880135614a14816158c8565b93506080880135614a24816158c8565b925060a0880135614a34816158c8565b9150614a4260c089016147c1565b905092959891949750929550565b600060208284031215614a61578081fd5b8151600281106125a1578182fd5b600080600060608486031215614a83578081fd5b833592506020840135614a95816158dd565b9150614aa3604085016147c1565b90509250925092565b600060408284031215614abd578081fd5b604051604081018181106001600160401b0382111715614adf57614adf6158b2565b604052825181526020928301519281019290925250919050565b600081830360c0811215614b0b578182fd5b60408051608081016001600160401b038282108183111715614b2f57614b2f6158b2565b90835285519064ffffffffff82168214614b47578586fd5b908252602086015190614b59826158dd565b8160208401526060603f1986011215614b70578586fd5b835194506060850191508482108183111715614b8e57614b8e6158b2565b50825284820151614b9e816158c8565b83526060850151614bae816158c8565b60208401526080850151614bc1816158c8565b838301529081019190915260a09290920151606083015250919050565b600080600060608486031215614bf2578081fd5b614bfb846147c1565b9250614c09602085016147c1565b91506040840135614c19816158c8565b809150509250925092565b600080600060608486031215614c38578081fd5b833592506020840135614c4a816158dd565b929592945050506040919091013590565b60008060408385031215614c6d578182fd5b50508035926020909101359150565b600060208284031215614c8d578081fd5b6125a1826147d3565b600080600060608486031215614caa578081fd5b614cb3846147d3565b95602085013595506040909401359392505050565b60008060008060008060008060006101208a8c031215614ce6578283fd5b614cef8a6147d3565b985060208a0135975060408a0135965060608a0135614d0d816158c8565b955060808a0135945060a08a0135935060c08a013560ff81168114614d30578384fd5b8093505060e08a013591506101008a013590509295985092959850929598565b6000815180845260208085019450808401835b83811015614d885781516001600160401b031687529582019590820190600101614d63565b509495945050505050565b60008151808452614dab816020860160208601615825565b601f01601f19169290920160200192915050565b805164ffffffffff16825260208082015115158184015260408083015180516001600160a01b03908116838701529281015183166060808701919091529101519091166080840152015160a090910152565b60008251614e23818460208701615825565b9190910192915050565b6001600160a01b0391909116815260200190565b6001600160a01b0392831681529116602082015260400190565b6001600160a01b039384168152919092166020820152604081019190915260600190565b6001600160a01b03868116825285166020820152604081018490526060810183905260a06080820181905260009061464090830184614d93565b6001600160a01b039290921682521515602082015260400190565b6001600160a01b03929092168252602082015260400190565b6001600160a01b039390931683526020830191909152604082015260600190565b6001600160a01b039290921682526001600160401b0316602082015260400190565b6001600160a01b039490941684526001600160401b039290921660208401526040830152606082015260800190565b6000602082526125a16020830184614d50565b901515815260200190565b6000861515825260a06020830152614f9860a0830187614d50565b6040830195909552506001600160a01b0392909216606083015260809091015292915050565b90815260200190565b6001600160e01b031991909116815260200190565b6001600160a01b0393841681529183166020830152909116604082015260600190565b928352901515602083015261ffff16604082015260600190565b6000602082526125a16020830184614d93565b60208082526022908201527f456e756d657261626c655365743a20696e646578206f7574206f6620626f756e604082015261647360f01b606082015260800190565b6020808252600e908201526d4e6f7420636f6d70617469626c6560901b604082015260600190565b60208082526003908201526222991960e91b604082015260600190565b60208082526026908201527f4f776e61626c653a206e6577206f776e657220697320746865207a65726f206160408201526564647265737360d01b606082015260800190565b60208082526003908201526245313760e81b604082015260600190565b602080825260039082015262114c8d60ea1b604082015260600190565b60208082526003908201526204531360ec1b604082015260600190565b6020808252602e908201527f496e697469616c697a61626c653a20636f6e747261637420697320616c72656160408201526d191e481a5b9a5d1a585b1a5e995960921b606082015260800190565b60208082526003908201526245313160e81b604082015260600190565b60208082526003908201526245313360e81b604082015260600190565b60208082526003908201526208a60760eb1b604082015260600190565b6020808252818101527f4f776e61626c653a2063616c6c6572206973206e6f7420746865206f776e6572604082015260600190565b60208082526003908201526222989b60e91b604082015260600190565b60208082526003908201526245323160e81b604082015260600190565b60208082526003908201526245323360e81b604082015260600190565b6020808252601d908201527f416464726573733a2063616c6c20746f206e6f6e2d636f6e7472616374000000604082015260600190565b60208082526003908201526245313960e81b604082015260600190565b60208082526003908201526245323560e81b604082015260600190565b60208082526008908201526710b6b0b730b3b2b960c11b604082015260600190565b60208082526003908201526204532360ec1b604082015260600190565b60208082526003908201526222989960e91b604082015260600190565b6020808252602a908201527f5361666545524332303a204552433230206f7065726174696f6e20646964206e6040820152691bdd081cdd58d8d9595960b21b606082015260800190565b6020808252601f908201527f5265656e7472616e637947756172643a207265656e7472616e742063616c6c00604082015260600190565b60c08101611dd78284614dbf565b61014081016153ec8288614dbf565b6001600160a01b039590951660c082015260e081019390935261010083019190915261012090910152919050565b60e081016154288285614dbf565b8260c08301529392505050565b61010081016154448286614dbf565b60c082019390935260e00152919050565b61ffff91909116815260200190565b61ffff93841681529190921660208201526001600160a01b03909116604082015260600190565b9182526001600160a01b0316602082015260400190565b918252602082015260400190565b9a8b5260208b01999099526001600160a01b0397881660408b015295871660608a015260808901949094529190941660a087015260c086019390935260e085019290925260ff9091166101008401526101208301526101408201526101600190565b93845260208401929092526001600160a01b03166040830152606082015260800190565b9586526020860194909452604085019290925260608401526080830152151560a082015260c00190565b6001600160401b0391909116815260200190565b6001600160401b039690961686526001600160a01b03949094166020860152604085019290925260608401526080830152151560a082015260c00190565b6001600160401b03929092168252602082015260400190565b6001600160401b0393909316835260208301919091521515604082015260600190565b6001600160401b039390931683526020830191909152604082015260600190565b6040518181016001600160401b0381118282101715615630576156306158b2565b604052919050565b600080821280156001600160ff1b038490038513161561565a5761565a615886565b600160ff1b839003841281161561567357615673615886565b50500190565b6000821982111561568c5761568c615886565b500190565b60006001600160401b038083168185168083038211156156b3576156b3615886565b01949350505050565b6000826156cb576156cb61589c565b600160ff1b8214600019841416156156e5576156e5615886565b500590565b6000826156f9576156f961589c565b500490565b60006001600160ff1b038184138284138082168684048611161561572457615724615886565b600160ff1b8487128281168783058912161561574257615742615886565b85871292508782058712848416161561575d5761575d615886565b8785058712818416161561577357615773615886565b505050929093029392505050565b600081600019048311821515161561579b5761579b615886565b500290565b60006001600160401b03808316818516818304811182151516156157c6576157c6615886565b02949350505050565b60008083128015600160ff1b8501841216156157ed576157ed615886565b6001600160ff1b038401831381161561580857615808615886565b50500390565b60008282101561582057615820615886565b500390565b60005b83811015615840578181015183820152602001615828565b83811115613e4a5750506000910152565b600060001982141561586557615865615886565b5060010190565b6000600160ff1b82141561588257615882615886565b0390565b634e487b7160e01b600052601160045260246000fd5b634e487b7160e01b600052601260045260246000fd5b634e487b7160e01b600052604160045260246000fd5b6001600160a01b03811681146108f457600080fd5b80151581146108f457600080fdfec5f16f0fcc639fa48a6947836d9850f504798523bf8c9a3a87d5876cf622bcf7a264697066735822122025dac4e598b50531e027bf7b656b8cce1ef877f2855dacc73f805c4c7eed19bc64736f6c63430008000033",
    "linkReferences": {}
  },
  "methodIdentifiers": {
    "MINIMUM_TRADE_SIZE()": "bb736f4b",
    "addSeries(uint64)": "2824c146",
    "ammDataProvider()": "2a85cfd5",
    "bTokenBuy(uint64,uint256,uint256)": "d694fd7c",
    "bTokenDirectBuy(uint64,uint256,uint256,address,uint256,uint256,uint8,bytes32,bytes32)": "2c1f73b6",
    "bTokenSell(uint64,uint256,uint256)": "bd4c0cb1",
    "calculateFees(uint256,uint256)": "7096335b",
    "claimAllExpiredTokens()": "736525cf",
    "claimExpiredTokens(uint64)": "02504213",
    "collateralBalance()": "c98c05b7",
    "collateralToken()": "b2016bd4",
    "dynamicIvEnabled()": "d0269f53",
    "erc1155Controller()": "03cdf7fe",
    "feeDestinationAddress()": "0323a05c",
    "getAllSeries()": "65514909",
    "getAmmDataProvider()": "7d138bca",
    "getBaselineVolatility()": "36211a80",
    "getCurrentUnderlyingPrice()": "a4b4e1a2",
    "getLogicAddress()": "abd108ba",
    "getPriceForSeries(uint64)": "a9c862fe",
    "getSeries(uint64)": "8fdc057f",
    "getVolatility(uint64)": "c8f3e555",
    "initialize(address,address,address,address,address,address,uint16)": "71c654ee",
    "ivDriftRate()": "28f12504",
    "ivShift()": "50ecb7d8",
    "lightAirswapAddress()": "b9d9252e",
    "lockedCollateral()": "b952cc4a",
    "lpToken()": "5fcbd285",
    "maxOptionFeeBasisPoints()": "fd18622c",
    "onERC1155BatchReceived(address,address,uint256[],uint256[],bytes)": "bc197c81",
    "onERC1155Received(address,address,uint256,uint256,bytes)": "f23a6e61",
    "owner()": "8da5cb5b",
    "priceToken()": "2ff6fe76",
    "provideCapital(uint256,uint256)": "48257018",
    "proxiableUUID()": "52d1902d",
    "renounceOwnership()": "715018a6",
    "seriesController()": "bd36068c",
    "seriesVolatilities(uint64)": "ad078922",
    "setAmmConfig(int256,bool,uint16)": "88edea79",
    "setTradingFeeParams(uint16,uint16,address)": "b1c269b4",
    "supportsInterface(bytes4)": "01ffc9a7",
    "tradeFeeBasisPoints()": "c3bf70f1",
    "transferOwnership(address)": "f2fde38b",
    "underlyingToken()": "2495a599",
    "updateAddressesProvider(address)": "219a9822",
    "updateImplementation(address)": "025b22bc",
    "volatilityFactor()": "7e507742",
    "withdrawCapital(uint256,bool,uint256)": "3b26cf5c",
    "withdrawLockedCollateral(uint256[])": "22c4e7c6"
  },
  "id": 4
}